{
	"contracts/NftAuction.sol": {
		"NftAuction": {
			"abi": [
				{
					"inputs": [],
					"stateMutability": "nonpayable",
					"type": "constructor"
				},
				{
					"inputs": [],
					"name": "admin",
					"outputs": [
						{
							"internalType": "address",
							"name": "",
							"type": "address"
						}
					],
					"stateMutability": "view",
					"type": "function"
				},
				{
					"inputs": [
						{
							"internalType": "uint256",
							"name": "",
							"type": "uint256"
						}
					],
					"name": "auctions",
					"outputs": [
						{
							"internalType": "address",
							"name": "seller",
							"type": "address"
						},
						{
							"internalType": "uint256",
							"name": "startPrice",
							"type": "uint256"
						},
						{
							"internalType": "uint256",
							"name": "duration",
							"type": "uint256"
						},
						{
							"internalType": "uint256",
							"name": "startTime",
							"type": "uint256"
						},
						{
							"internalType": "address",
							"name": "highestBidder",
							"type": "address"
						},
						{
							"internalType": "uint256",
							"name": "highestBid",
							"type": "uint256"
						},
						{
							"internalType": "bool",
							"name": "ended",
							"type": "bool"
						}
					],
					"stateMutability": "view",
					"type": "function"
				},
				{
					"inputs": [
						{
							"internalType": "uint256",
							"name": "_startPrice",
							"type": "uint256"
						},
						{
							"internalType": "uint256",
							"name": "_duration",
							"type": "uint256"
						}
					],
					"name": "createAuction",
					"outputs": [],
					"stateMutability": "nonpayable",
					"type": "function"
				},
				{
					"inputs": [],
					"name": "nextAuctionId",
					"outputs": [
						{
							"internalType": "uint256",
							"name": "",
							"type": "uint256"
						}
					],
					"stateMutability": "view",
					"type": "function"
				},
				{
					"inputs": [
						{
							"internalType": "uint256",
							"name": "auctionId",
							"type": "uint256"
						}
					],
					"name": "palceBid",
					"outputs": [],
					"stateMutability": "payable",
					"type": "function"
				}
			],
			"devdoc": {
				"kind": "dev",
				"methods": {},
				"version": 1
			},
			"evm": {
				"assembly": "    /* \"contracts/NftAuction.sol\":79:2140  contract NftAuction  {... */\n  mstore(0x40, 0x80)\n    /* \"contracts/NftAuction.sol\":648:699  constructor() {... */\n  callvalue\n  dup1\n  iszero\n  tag_1\n  jumpi\n  0x00\n  dup1\n  revert\ntag_1:\n  pop\n    /* \"contracts/NftAuction.sol\":681:691  msg.sender */\n  caller\n    /* \"contracts/NftAuction.sol\":673:678  admin */\n  0x02\n  0x00\n    /* \"contracts/NftAuction.sol\":673:691  admin = msg.sender */\n  0x0100\n  exp\n  dup2\n  sload\n  dup2\n  0xffffffffffffffffffffffffffffffffffffffff\n  mul\n  not\n  and\n  swap1\n  dup4\n  0xffffffffffffffffffffffffffffffffffffffff\n  and\n  mul\n  or\n  swap1\n  sstore\n  pop\n    /* \"contracts/NftAuction.sol\":79:2140  contract NftAuction  {... */\n  dataSize(sub_0)\n  dup1\n  dataOffset(sub_0)\n  0x00\n  codecopy\n  0x00\n  return\nstop\n\nsub_0: assembly {\n        /* \"contracts/NftAuction.sol\":79:2140  contract NftAuction  {... */\n      mstore(0x40, 0x80)\n      jumpi(tag_1, lt(calldatasize, 0x04))\n      shr(0xe0, calldataload(0x00))\n      dup1\n      0x0121683f\n      eq\n      tag_2\n      jumpi\n      dup1\n      0x571a26a0\n      eq\n      tag_3\n      jumpi\n      dup1\n      0xb30aeee7\n      eq\n      tag_4\n      jumpi\n      dup1\n      0xf851a440\n      eq\n      tag_5\n      jumpi\n      dup1\n      0xfc528482\n      eq\n      tag_6\n      jumpi\n    tag_1:\n      0x00\n      dup1\n      revert\n        /* \"contracts/NftAuction.sol\":727:1357  function createAuction( uint256 _startPrice, uint256 _duration) public {... */\n    tag_2:\n      callvalue\n      dup1\n      iszero\n      tag_7\n      jumpi\n      0x00\n      dup1\n      revert\n    tag_7:\n      pop\n      tag_8\n      0x04\n      dup1\n      calldatasize\n      sub\n      dup2\n      add\n      swap1\n      tag_9\n      swap2\n      swap1\n      tag_10\n      jump\t// in\n    tag_9:\n      tag_11\n      jump\t// in\n    tag_8:\n      stop\n        /* \"contracts/NftAuction.sol\":487:528  mapping(uint256=>Auction) public auctions */\n    tag_3:\n      callvalue\n      dup1\n      iszero\n      tag_12\n      jumpi\n      0x00\n      dup1\n      revert\n    tag_12:\n      pop\n      tag_13\n      0x04\n      dup1\n      calldatasize\n      sub\n      dup2\n      add\n      swap1\n      tag_14\n      swap2\n      swap1\n      tag_15\n      jump\t// in\n    tag_14:\n      tag_16\n      jump\t// in\n    tag_13:\n      mload(0x40)\n      tag_17\n      swap8\n      swap7\n      swap6\n      swap5\n      swap4\n      swap3\n      swap2\n      swap1\n      tag_18\n      jump\t// in\n    tag_17:\n      mload(0x40)\n      dup1\n      swap2\n      sub\n      swap1\n      return\n        /* \"contracts/NftAuction.sol\":1391:2137  function palceBid(uint256 auctionId) external payable {... */\n    tag_4:\n      tag_19\n      0x04\n      dup1\n      calldatasize\n      sub\n      dup2\n      add\n      swap1\n      tag_20\n      swap2\n      swap1\n      tag_15\n      jump\t// in\n    tag_20:\n      tag_21\n      jump\t// in\n    tag_19:\n      stop\n        /* \"contracts/NftAuction.sol\":617:637  address public admin */\n    tag_5:\n      callvalue\n      dup1\n      iszero\n      tag_22\n      jumpi\n      0x00\n      dup1\n      revert\n    tag_22:\n      pop\n      tag_23\n      tag_24\n      jump\t// in\n    tag_23:\n      mload(0x40)\n      tag_25\n      swap2\n      swap1\n      tag_26\n      jump\t// in\n    tag_25:\n      mload(0x40)\n      dup1\n      swap2\n      sub\n      swap1\n      return\n        /* \"contracts/NftAuction.sol\":563:591  uint256 public nextAuctionId */\n    tag_6:\n      callvalue\n      dup1\n      iszero\n      tag_27\n      jumpi\n      0x00\n      dup1\n      revert\n    tag_27:\n      pop\n      tag_28\n      tag_29\n      jump\t// in\n    tag_28:\n      mload(0x40)\n      tag_30\n      swap2\n      swap1\n      tag_31\n      jump\t// in\n    tag_30:\n      mload(0x40)\n      dup1\n      swap2\n      sub\n      swap1\n      return\n        /* \"contracts/NftAuction.sol\":727:1357  function createAuction( uint256 _startPrice, uint256 _duration) public {... */\n    tag_11:\n        /* \"contracts/NftAuction.sol\":831:832  0 */\n      0x00\n        /* \"contracts/NftAuction.sol\":817:828  _startPrice */\n      dup3\n        /* \"contracts/NftAuction.sol\":817:832  _startPrice > 0 */\n      gt\n        /* \"contracts/NftAuction.sol\":809:871  require(_startPrice > 0, \"Start price must be greater than 0\") */\n      tag_33\n      jumpi\n      mload(0x40)\n      0x08c379a000000000000000000000000000000000000000000000000000000000\n      dup2\n      mstore\n      0x04\n      add\n      tag_34\n      swap1\n      tag_35\n      jump\t// in\n    tag_34:\n      mload(0x40)\n      dup1\n      swap2\n      sub\n      swap1\n      revert\n    tag_33:\n        /* \"contracts/NftAuction.sol\":902:909  1000*60 */\n      0xea60\n        /* \"contracts/NftAuction.sol\":890:899  _duration */\n      dup2\n        /* \"contracts/NftAuction.sol\":890:909  _duration > 1000*60 */\n      gt\n        /* \"contracts/NftAuction.sol\":882:952  require(_duration > 1000*60, \"Duration must be greater than 1 minute\") */\n      tag_36\n      jumpi\n      mload(0x40)\n      0x08c379a000000000000000000000000000000000000000000000000000000000\n      dup2\n      mstore\n      0x04\n      add\n      tag_37\n      swap1\n      tag_38\n      jump\t// in\n    tag_37:\n      mload(0x40)\n      dup1\n      swap2\n      sub\n      swap1\n      revert\n    tag_36:\n        /* \"contracts/NftAuction.sol\":985:990  admin */\n      0x02\n      0x00\n      swap1\n      sload\n      swap1\n      0x0100\n      exp\n      swap1\n      div\n      0xffffffffffffffffffffffffffffffffffffffff\n      and\n        /* \"contracts/NftAuction.sol\":971:990  msg.sender == admin */\n      0xffffffffffffffffffffffffffffffffffffffff\n      and\n        /* \"contracts/NftAuction.sol\":971:981  msg.sender */\n      caller\n        /* \"contracts/NftAuction.sol\":971:990  msg.sender == admin */\n      0xffffffffffffffffffffffffffffffffffffffff\n      and\n      eq\n        /* \"contracts/NftAuction.sol\":963:1023  require(msg.sender == admin,\"Only admin can create auction\") */\n      tag_39\n      jumpi\n      mload(0x40)\n      0x08c379a000000000000000000000000000000000000000000000000000000000\n      dup2\n      mstore\n      0x04\n      add\n      tag_40\n      swap1\n      tag_41\n      jump\t// in\n    tag_40:\n      mload(0x40)\n      dup1\n      swap2\n      sub\n      swap1\n      revert\n    tag_39:\n        /* \"contracts/NftAuction.sol\":1062:1323  Auction({... */\n      mload(0x40)\n      dup1\n      0xe0\n      add\n      0x40\n      mstore\n      dup1\n        /* \"contracts/NftAuction.sol\":1093:1103  msg.sender */\n      caller\n        /* \"contracts/NftAuction.sol\":1062:1323  Auction({... */\n      0xffffffffffffffffffffffffffffffffffffffff\n      and\n      dup2\n      mstore\n      0x20\n      add\n        /* \"contracts/NftAuction.sol\":1130:1141  _startPrice */\n      dup4\n        /* \"contracts/NftAuction.sol\":1062:1323  Auction({... */\n      dup2\n      mstore\n      0x20\n      add\n        /* \"contracts/NftAuction.sol\":1166:1175  _duration */\n      dup3\n        /* \"contracts/NftAuction.sol\":1062:1323  Auction({... */\n      dup2\n      mstore\n      0x20\n      add\n        /* \"contracts/NftAuction.sol\":1201:1216  block.timestamp */\n      timestamp\n        /* \"contracts/NftAuction.sol\":1062:1323  Auction({... */\n      dup2\n      mstore\n      0x20\n      add\n        /* \"contracts/NftAuction.sol\":1254:1255  0 */\n      0x00\n        /* \"contracts/NftAuction.sol\":1062:1323  Auction({... */\n      0xffffffffffffffffffffffffffffffffffffffff\n      and\n      dup2\n      mstore\n      0x20\n      add\n        /* \"contracts/NftAuction.sol\":1283:1284  0 */\n      0x00\n        /* \"contracts/NftAuction.sol\":1062:1323  Auction({... */\n      dup2\n      mstore\n      0x20\n      add\n        /* \"contracts/NftAuction.sol\":1306:1311  false */\n      0x00\n        /* \"contracts/NftAuction.sol\":1062:1323  Auction({... */\n      iszero\n      iszero\n      dup2\n      mstore\n      pop\n        /* \"contracts/NftAuction.sol\":1036:1044  auctions */\n      0x00\n        /* \"contracts/NftAuction.sol\":1036:1059  auctions[nextAuctionId] */\n      dup1\n        /* \"contracts/NftAuction.sol\":1045:1058  nextAuctionId */\n      sload(0x01)\n        /* \"contracts/NftAuction.sol\":1036:1059  auctions[nextAuctionId] */\n      dup2\n      mstore\n      0x20\n      add\n      swap1\n      dup2\n      mstore\n      0x20\n      add\n      0x00\n      keccak256\n        /* \"contracts/NftAuction.sol\":1036:1323  auctions[nextAuctionId] = Auction({... */\n      0x00\n      dup3\n      add\n      mload\n      dup2\n      0x00\n      add\n      exp(0x0100, 0x00)\n      dup2\n      sload\n      dup2\n      0xffffffffffffffffffffffffffffffffffffffff\n      mul\n      not\n      and\n      swap1\n      dup4\n      0xffffffffffffffffffffffffffffffffffffffff\n      and\n      mul\n      or\n      swap1\n      sstore\n      pop\n      0x20\n      dup3\n      add\n      mload\n      dup2\n      0x01\n      add\n      sstore\n      0x40\n      dup3\n      add\n      mload\n      dup2\n      0x02\n      add\n      sstore\n      0x60\n      dup3\n      add\n      mload\n      dup2\n      0x03\n      add\n      sstore\n      0x80\n      dup3\n      add\n      mload\n      dup2\n      0x04\n      add\n      exp(0x0100, 0x00)\n      dup2\n      sload\n      dup2\n      0xffffffffffffffffffffffffffffffffffffffff\n      mul\n      not\n      and\n      swap1\n      dup4\n      0xffffffffffffffffffffffffffffffffffffffff\n      and\n      mul\n      or\n      swap1\n      sstore\n      pop\n      0xa0\n      dup3\n      add\n      mload\n      dup2\n      0x05\n      add\n      sstore\n      0xc0\n      dup3\n      add\n      mload\n      dup2\n      0x06\n      add\n      exp(0x0100, 0x00)\n      dup2\n      sload\n      dup2\n      0xff\n      mul\n      not\n      and\n      swap1\n      dup4\n      iszero\n      iszero\n      mul\n      or\n      swap1\n      sstore\n      pop\n      swap1\n      pop\n      pop\n        /* \"contracts/NftAuction.sol\":1334:1347  nextAuctionId */\n      0x01\n      0x00\n        /* \"contracts/NftAuction.sol\":1334:1349  nextAuctionId++ */\n      dup2\n      sload\n      dup1\n      swap3\n      swap2\n      swap1\n      tag_42\n      swap1\n      tag_43\n      jump\t// in\n    tag_42:\n      swap2\n      swap1\n      pop\n      sstore\n      pop\n        /* \"contracts/NftAuction.sol\":727:1357  function createAuction( uint256 _startPrice, uint256 _duration) public {... */\n      pop\n      pop\n      jump\t// out\n        /* \"contracts/NftAuction.sol\":487:528  mapping(uint256=>Auction) public auctions */\n    tag_16:\n      mstore(0x20, 0x00)\n      dup1\n      0x00\n      mstore\n      keccak256(0x00, 0x40)\n      0x00\n      swap2\n      pop\n      swap1\n      pop\n      dup1\n      0x00\n      add\n      0x00\n      swap1\n      sload\n      swap1\n      0x0100\n      exp\n      swap1\n      div\n      0xffffffffffffffffffffffffffffffffffffffff\n      and\n      swap1\n      dup1\n      0x01\n      add\n      sload\n      swap1\n      dup1\n      0x02\n      add\n      sload\n      swap1\n      dup1\n      0x03\n      add\n      sload\n      swap1\n      dup1\n      0x04\n      add\n      0x00\n      swap1\n      sload\n      swap1\n      0x0100\n      exp\n      swap1\n      div\n      0xffffffffffffffffffffffffffffffffffffffff\n      and\n      swap1\n      dup1\n      0x05\n      add\n      sload\n      swap1\n      dup1\n      0x06\n      add\n      0x00\n      swap1\n      sload\n      swap1\n      0x0100\n      exp\n      swap1\n      div\n      0xff\n      and\n      swap1\n      pop\n      dup8\n      jump\t// out\n        /* \"contracts/NftAuction.sol\":1391:2137  function palceBid(uint256 auctionId) external payable {... */\n    tag_21:\n        /* \"contracts/NftAuction.sol\":1456:1479  Auction storage auction */\n      0x00\n        /* \"contracts/NftAuction.sol\":1482:1490  auctions */\n      dup1\n        /* \"contracts/NftAuction.sol\":1482:1501  auctions[auctionId] */\n      0x00\n        /* \"contracts/NftAuction.sol\":1491:1500  auctionId */\n      dup4\n        /* \"contracts/NftAuction.sol\":1482:1501  auctions[auctionId] */\n      dup2\n      mstore\n      0x20\n      add\n      swap1\n      dup2\n      mstore\n      0x20\n      add\n      0x00\n      keccak256\n        /* \"contracts/NftAuction.sol\":1456:1501  Auction storage auction = auctions[auctionId] */\n      swap1\n      pop\n        /* \"contracts/NftAuction.sol\":1548:1555  auction */\n      dup1\n        /* \"contracts/NftAuction.sol\":1548:1561  auction.ended */\n      0x06\n      add\n      0x00\n      swap1\n      sload\n      swap1\n      0x0100\n      exp\n      swap1\n      div\n      0xff\n      and\n        /* \"contracts/NftAuction.sol\":1547:1561  !auction.ended */\n      iszero\n        /* \"contracts/NftAuction.sol\":1547:1619  !auction.ended && block.timestamp < auction.startTime + auction.duration */\n      dup1\n      iszero\n      tag_45\n      jumpi\n      pop\n        /* \"contracts/NftAuction.sol\":1603:1610  auction */\n      dup1\n        /* \"contracts/NftAuction.sol\":1603:1619  auction.duration */\n      0x02\n      add\n      sload\n        /* \"contracts/NftAuction.sol\":1583:1590  auction */\n      dup2\n        /* \"contracts/NftAuction.sol\":1583:1600  auction.startTime */\n      0x03\n      add\n      sload\n        /* \"contracts/NftAuction.sol\":1583:1619  auction.startTime + auction.duration */\n      tag_46\n      swap2\n      swap1\n      tag_47\n      jump\t// in\n    tag_46:\n        /* \"contracts/NftAuction.sol\":1565:1580  block.timestamp */\n      timestamp\n        /* \"contracts/NftAuction.sol\":1565:1619  block.timestamp < auction.startTime + auction.duration */\n      lt\n        /* \"contracts/NftAuction.sol\":1547:1619  !auction.ended && block.timestamp < auction.startTime + auction.duration */\n    tag_45:\n        /* \"contracts/NftAuction.sol\":1539:1645  require(!auction.ended && block.timestamp < auction.startTime + auction.duration, \"Auction already ended\") */\n      tag_48\n      jumpi\n      mload(0x40)\n      0x08c379a000000000000000000000000000000000000000000000000000000000\n      dup2\n      mstore\n      0x04\n      add\n      tag_49\n      swap1\n      tag_50\n      jump\t// in\n    tag_49:\n      mload(0x40)\n      dup1\n      swap2\n      sub\n      swap1\n      revert\n    tag_48:\n        /* \"contracts/NftAuction.sol\":1735:1742  auction */\n      dup1\n        /* \"contracts/NftAuction.sol\":1735:1753  auction.highestBid */\n      0x05\n      add\n      sload\n        /* \"contracts/NftAuction.sol\":1723:1732  msg.value */\n      callvalue\n        /* \"contracts/NftAuction.sol\":1723:1753  msg.value > auction.highestBid */\n      gt\n        /* \"contracts/NftAuction.sol\":1723:1787  msg.value > auction.highestBid && msg.value > auction.startPrice */\n      dup1\n      iszero\n      tag_51\n      jumpi\n      pop\n        /* \"contracts/NftAuction.sol\":1769:1776  auction */\n      dup1\n        /* \"contracts/NftAuction.sol\":1769:1787  auction.startPrice */\n      0x01\n      add\n      sload\n        /* \"contracts/NftAuction.sol\":1757:1766  msg.value */\n      callvalue\n        /* \"contracts/NftAuction.sol\":1757:1787  msg.value > auction.startPrice */\n      gt\n        /* \"contracts/NftAuction.sol\":1723:1787  msg.value > auction.highestBid && msg.value > auction.startPrice */\n    tag_51:\n        /* \"contracts/NftAuction.sol\":1715:1839  require(msg.value > auction.highestBid && msg.value > auction.startPrice, \"Bid must be higher than the current highest bid\") */\n      tag_52\n      jumpi\n      mload(0x40)\n      0x08c379a000000000000000000000000000000000000000000000000000000000\n      dup2\n      mstore\n      0x04\n      add\n      tag_53\n      swap1\n      tag_54\n      jump\t// in\n    tag_53:\n      mload(0x40)\n      dup1\n      swap2\n      sub\n      swap1\n      revert\n    tag_52:\n        /* \"contracts/NftAuction.sol\":1951:1952  0 */\n      0x00\n        /* \"contracts/NftAuction.sol\":1918:1953  auction.highestBidder != address(0) */\n      0xffffffffffffffffffffffffffffffffffffffff\n      and\n        /* \"contracts/NftAuction.sol\":1918:1925  auction */\n      dup2\n        /* \"contracts/NftAuction.sol\":1918:1939  auction.highestBidder */\n      0x04\n      add\n      0x00\n      swap1\n      sload\n      swap1\n      0x0100\n      exp\n      swap1\n      div\n      0xffffffffffffffffffffffffffffffffffffffff\n      and\n        /* \"contracts/NftAuction.sol\":1918:1953  auction.highestBidder != address(0) */\n      0xffffffffffffffffffffffffffffffffffffffff\n      and\n      eq\n        /* \"contracts/NftAuction.sol\":1915:2040  if(auction.highestBidder != address(0)){... */\n      tag_55\n      jumpi\n        /* \"contracts/NftAuction.sol\":1977:1984  auction */\n      dup1\n        /* \"contracts/NftAuction.sol\":1977:1998  auction.highestBidder */\n      0x04\n      add\n      0x00\n      swap1\n      sload\n      swap1\n      0x0100\n      exp\n      swap1\n      div\n      0xffffffffffffffffffffffffffffffffffffffff\n      and\n        /* \"contracts/NftAuction.sol\":1969:2008  payable(auction.highestBidder).transfer */\n      0xffffffffffffffffffffffffffffffffffffffff\n      and\n        /* \"contracts/NftAuction.sol\":1969:2028  payable(auction.highestBidder).transfer(auction.highestBid) */\n      0x08fc\n        /* \"contracts/NftAuction.sol\":2009:2016  auction */\n      dup3\n        /* \"contracts/NftAuction.sol\":2009:2027  auction.highestBid */\n      0x05\n      add\n      sload\n        /* \"contracts/NftAuction.sol\":1969:2028  payable(auction.highestBidder).transfer(auction.highestBid) */\n      swap1\n      dup2\n      iszero\n      mul\n      swap1\n      mload(0x40)\n      0x00\n      mload(0x40)\n      dup1\n      dup4\n      sub\n      dup2\n      dup6\n      dup9\n      dup9\n      call\n      swap4\n      pop\n      pop\n      pop\n      pop\n      iszero\n      dup1\n      iszero\n      tag_57\n      jumpi\n      returndatasize\n      0x00\n      dup1\n      returndatacopy\n      revert(0x00, returndatasize)\n    tag_57:\n      pop\n        /* \"contracts/NftAuction.sol\":1915:2040  if(auction.highestBidder != address(0)){... */\n    tag_55:\n        /* \"contracts/NftAuction.sol\":2076:2086  msg.sender */\n      caller\n        /* \"contracts/NftAuction.sol\":2052:2059  auction */\n      dup2\n        /* \"contracts/NftAuction.sol\":2052:2073  auction.highestBidder */\n      0x04\n      add\n      0x00\n        /* \"contracts/NftAuction.sol\":2052:2086  auction.highestBidder = msg.sender */\n      0x0100\n      exp\n      dup2\n      sload\n      dup2\n      0xffffffffffffffffffffffffffffffffffffffff\n      mul\n      not\n      and\n      swap1\n      dup4\n      0xffffffffffffffffffffffffffffffffffffffff\n      and\n      mul\n      or\n      swap1\n      sstore\n      pop\n        /* \"contracts/NftAuction.sol\":2118:2127  msg.value */\n      callvalue\n        /* \"contracts/NftAuction.sol\":2097:2104  auction */\n      dup2\n        /* \"contracts/NftAuction.sol\":2097:2115  auction.highestBid */\n      0x05\n      add\n        /* \"contracts/NftAuction.sol\":2097:2127  auction.highestBid = msg.value */\n      dup2\n      swap1\n      sstore\n      pop\n        /* \"contracts/NftAuction.sol\":1445:2137  {... */\n      pop\n        /* \"contracts/NftAuction.sol\":1391:2137  function palceBid(uint256 auctionId) external payable {... */\n      pop\n      jump\t// out\n        /* \"contracts/NftAuction.sol\":617:637  address public admin */\n    tag_24:\n      0x02\n      0x00\n      swap1\n      sload\n      swap1\n      0x0100\n      exp\n      swap1\n      div\n      0xffffffffffffffffffffffffffffffffffffffff\n      and\n      dup2\n      jump\t// out\n        /* \"contracts/NftAuction.sol\":563:591  uint256 public nextAuctionId */\n    tag_29:\n      sload(0x01)\n      dup2\n      jump\t// out\n        /* \"#utility.yul\":88:205   */\n    tag_59:\n        /* \"#utility.yul\":197:198   */\n      0x00\n        /* \"#utility.yul\":194:195   */\n      dup1\n        /* \"#utility.yul\":187:199   */\n      revert\n        /* \"#utility.yul\":334:411   */\n    tag_61:\n        /* \"#utility.yul\":371:378   */\n      0x00\n        /* \"#utility.yul\":400:405   */\n      dup2\n        /* \"#utility.yul\":389:405   */\n      swap1\n      pop\n        /* \"#utility.yul\":334:411   */\n      swap2\n      swap1\n      pop\n      jump\t// out\n        /* \"#utility.yul\":417:539   */\n    tag_62:\n        /* \"#utility.yul\":490:514   */\n      tag_88\n        /* \"#utility.yul\":508:513   */\n      dup2\n        /* \"#utility.yul\":490:514   */\n      tag_61\n      jump\t// in\n    tag_88:\n        /* \"#utility.yul\":483:488   */\n      dup2\n        /* \"#utility.yul\":480:515   */\n      eq\n        /* \"#utility.yul\":470:533   */\n      tag_89\n      jumpi\n        /* \"#utility.yul\":529:530   */\n      0x00\n        /* \"#utility.yul\":526:527   */\n      dup1\n        /* \"#utility.yul\":519:531   */\n      revert\n        /* \"#utility.yul\":470:533   */\n    tag_89:\n        /* \"#utility.yul\":417:539   */\n      pop\n      jump\t// out\n        /* \"#utility.yul\":545:684   */\n    tag_63:\n        /* \"#utility.yul\":591:596   */\n      0x00\n        /* \"#utility.yul\":629:635   */\n      dup2\n        /* \"#utility.yul\":616:636   */\n      calldataload\n        /* \"#utility.yul\":607:636   */\n      swap1\n      pop\n        /* \"#utility.yul\":645:678   */\n      tag_91\n        /* \"#utility.yul\":672:677   */\n      dup2\n        /* \"#utility.yul\":645:678   */\n      tag_62\n      jump\t// in\n    tag_91:\n        /* \"#utility.yul\":545:684   */\n      swap3\n      swap2\n      pop\n      pop\n      jump\t// out\n        /* \"#utility.yul\":690:1164   */\n    tag_10:\n        /* \"#utility.yul\":758:764   */\n      0x00\n        /* \"#utility.yul\":766:772   */\n      dup1\n        /* \"#utility.yul\":815:817   */\n      0x40\n        /* \"#utility.yul\":803:812   */\n      dup4\n        /* \"#utility.yul\":794:801   */\n      dup6\n        /* \"#utility.yul\":790:813   */\n      sub\n        /* \"#utility.yul\":786:818   */\n      slt\n        /* \"#utility.yul\":783:902   */\n      iszero\n      tag_93\n      jumpi\n        /* \"#utility.yul\":821:900   */\n      tag_94\n      tag_59\n      jump\t// in\n    tag_94:\n        /* \"#utility.yul\":783:902   */\n    tag_93:\n        /* \"#utility.yul\":941:942   */\n      0x00\n        /* \"#utility.yul\":966:1019   */\n      tag_95\n        /* \"#utility.yul\":1011:1018   */\n      dup6\n        /* \"#utility.yul\":1002:1008   */\n      dup3\n        /* \"#utility.yul\":991:1000   */\n      dup7\n        /* \"#utility.yul\":987:1009   */\n      add\n        /* \"#utility.yul\":966:1019   */\n      tag_63\n      jump\t// in\n    tag_95:\n        /* \"#utility.yul\":956:1019   */\n      swap3\n      pop\n        /* \"#utility.yul\":912:1029   */\n      pop\n        /* \"#utility.yul\":1068:1070   */\n      0x20\n        /* \"#utility.yul\":1094:1147   */\n      tag_96\n        /* \"#utility.yul\":1139:1146   */\n      dup6\n        /* \"#utility.yul\":1130:1136   */\n      dup3\n        /* \"#utility.yul\":1119:1128   */\n      dup7\n        /* \"#utility.yul\":1115:1137   */\n      add\n        /* \"#utility.yul\":1094:1147   */\n      tag_63\n      jump\t// in\n    tag_96:\n        /* \"#utility.yul\":1084:1147   */\n      swap2\n      pop\n        /* \"#utility.yul\":1039:1157   */\n      pop\n        /* \"#utility.yul\":690:1164   */\n      swap3\n      pop\n      swap3\n      swap1\n      pop\n      jump\t// out\n        /* \"#utility.yul\":1170:1499   */\n    tag_15:\n        /* \"#utility.yul\":1229:1235   */\n      0x00\n        /* \"#utility.yul\":1278:1280   */\n      0x20\n        /* \"#utility.yul\":1266:1275   */\n      dup3\n        /* \"#utility.yul\":1257:1264   */\n      dup5\n        /* \"#utility.yul\":1253:1276   */\n      sub\n        /* \"#utility.yul\":1249:1281   */\n      slt\n        /* \"#utility.yul\":1246:1365   */\n      iszero\n      tag_98\n      jumpi\n        /* \"#utility.yul\":1284:1363   */\n      tag_99\n      tag_59\n      jump\t// in\n    tag_99:\n        /* \"#utility.yul\":1246:1365   */\n    tag_98:\n        /* \"#utility.yul\":1404:1405   */\n      0x00\n        /* \"#utility.yul\":1429:1482   */\n      tag_100\n        /* \"#utility.yul\":1474:1481   */\n      dup5\n        /* \"#utility.yul\":1465:1471   */\n      dup3\n        /* \"#utility.yul\":1454:1463   */\n      dup6\n        /* \"#utility.yul\":1450:1472   */\n      add\n        /* \"#utility.yul\":1429:1482   */\n      tag_63\n      jump\t// in\n    tag_100:\n        /* \"#utility.yul\":1419:1482   */\n      swap2\n      pop\n        /* \"#utility.yul\":1375:1492   */\n      pop\n        /* \"#utility.yul\":1170:1499   */\n      swap3\n      swap2\n      pop\n      pop\n      jump\t// out\n        /* \"#utility.yul\":1505:1631   */\n    tag_64:\n        /* \"#utility.yul\":1542:1549   */\n      0x00\n        /* \"#utility.yul\":1582:1624   */\n      0xffffffffffffffffffffffffffffffffffffffff\n        /* \"#utility.yul\":1575:1580   */\n      dup3\n        /* \"#utility.yul\":1571:1625   */\n      and\n        /* \"#utility.yul\":1560:1625   */\n      swap1\n      pop\n        /* \"#utility.yul\":1505:1631   */\n      swap2\n      swap1\n      pop\n      jump\t// out\n        /* \"#utility.yul\":1637:1733   */\n    tag_65:\n        /* \"#utility.yul\":1674:1681   */\n      0x00\n        /* \"#utility.yul\":1703:1727   */\n      tag_103\n        /* \"#utility.yul\":1721:1726   */\n      dup3\n        /* \"#utility.yul\":1703:1727   */\n      tag_64\n      jump\t// in\n    tag_103:\n        /* \"#utility.yul\":1692:1727   */\n      swap1\n      pop\n        /* \"#utility.yul\":1637:1733   */\n      swap2\n      swap1\n      pop\n      jump\t// out\n        /* \"#utility.yul\":1739:1857   */\n    tag_66:\n        /* \"#utility.yul\":1826:1850   */\n      tag_105\n        /* \"#utility.yul\":1844:1849   */\n      dup2\n        /* \"#utility.yul\":1826:1850   */\n      tag_65\n      jump\t// in\n    tag_105:\n        /* \"#utility.yul\":1821:1824   */\n      dup3\n        /* \"#utility.yul\":1814:1851   */\n      mstore\n        /* \"#utility.yul\":1739:1857   */\n      pop\n      pop\n      jump\t// out\n        /* \"#utility.yul\":1863:1981   */\n    tag_67:\n        /* \"#utility.yul\":1950:1974   */\n      tag_107\n        /* \"#utility.yul\":1968:1973   */\n      dup2\n        /* \"#utility.yul\":1950:1974   */\n      tag_61\n      jump\t// in\n    tag_107:\n        /* \"#utility.yul\":1945:1948   */\n      dup3\n        /* \"#utility.yul\":1938:1975   */\n      mstore\n        /* \"#utility.yul\":1863:1981   */\n      pop\n      pop\n      jump\t// out\n        /* \"#utility.yul\":1987:2077   */\n    tag_68:\n        /* \"#utility.yul\":2021:2028   */\n      0x00\n        /* \"#utility.yul\":2064:2069   */\n      dup2\n        /* \"#utility.yul\":2057:2070   */\n      iszero\n        /* \"#utility.yul\":2050:2071   */\n      iszero\n        /* \"#utility.yul\":2039:2071   */\n      swap1\n      pop\n        /* \"#utility.yul\":1987:2077   */\n      swap2\n      swap1\n      pop\n      jump\t// out\n        /* \"#utility.yul\":2083:2192   */\n    tag_69:\n        /* \"#utility.yul\":2164:2185   */\n      tag_110\n        /* \"#utility.yul\":2179:2184   */\n      dup2\n        /* \"#utility.yul\":2164:2185   */\n      tag_68\n      jump\t// in\n    tag_110:\n        /* \"#utility.yul\":2159:2162   */\n      dup3\n        /* \"#utility.yul\":2152:2186   */\n      mstore\n        /* \"#utility.yul\":2083:2192   */\n      pop\n      pop\n      jump\t// out\n        /* \"#utility.yul\":2198:3072   */\n    tag_18:\n        /* \"#utility.yul\":2453:2457   */\n      0x00\n        /* \"#utility.yul\":2491:2494   */\n      0xe0\n        /* \"#utility.yul\":2480:2489   */\n      dup3\n        /* \"#utility.yul\":2476:2495   */\n      add\n        /* \"#utility.yul\":2468:2495   */\n      swap1\n      pop\n        /* \"#utility.yul\":2505:2576   */\n      tag_112\n        /* \"#utility.yul\":2573:2574   */\n      0x00\n        /* \"#utility.yul\":2562:2571   */\n      dup4\n        /* \"#utility.yul\":2558:2575   */\n      add\n        /* \"#utility.yul\":2549:2555   */\n      dup11\n        /* \"#utility.yul\":2505:2576   */\n      tag_66\n      jump\t// in\n    tag_112:\n        /* \"#utility.yul\":2586:2658   */\n      tag_113\n        /* \"#utility.yul\":2654:2656   */\n      0x20\n        /* \"#utility.yul\":2643:2652   */\n      dup4\n        /* \"#utility.yul\":2639:2657   */\n      add\n        /* \"#utility.yul\":2630:2636   */\n      dup10\n        /* \"#utility.yul\":2586:2658   */\n      tag_67\n      jump\t// in\n    tag_113:\n        /* \"#utility.yul\":2668:2740   */\n      tag_114\n        /* \"#utility.yul\":2736:2738   */\n      0x40\n        /* \"#utility.yul\":2725:2734   */\n      dup4\n        /* \"#utility.yul\":2721:2739   */\n      add\n        /* \"#utility.yul\":2712:2718   */\n      dup9\n        /* \"#utility.yul\":2668:2740   */\n      tag_67\n      jump\t// in\n    tag_114:\n        /* \"#utility.yul\":2750:2822   */\n      tag_115\n        /* \"#utility.yul\":2818:2820   */\n      0x60\n        /* \"#utility.yul\":2807:2816   */\n      dup4\n        /* \"#utility.yul\":2803:2821   */\n      add\n        /* \"#utility.yul\":2794:2800   */\n      dup8\n        /* \"#utility.yul\":2750:2822   */\n      tag_67\n      jump\t// in\n    tag_115:\n        /* \"#utility.yul\":2832:2905   */\n      tag_116\n        /* \"#utility.yul\":2900:2903   */\n      0x80\n        /* \"#utility.yul\":2889:2898   */\n      dup4\n        /* \"#utility.yul\":2885:2904   */\n      add\n        /* \"#utility.yul\":2876:2882   */\n      dup7\n        /* \"#utility.yul\":2832:2905   */\n      tag_66\n      jump\t// in\n    tag_116:\n        /* \"#utility.yul\":2915:2988   */\n      tag_117\n        /* \"#utility.yul\":2983:2986   */\n      0xa0\n        /* \"#utility.yul\":2972:2981   */\n      dup4\n        /* \"#utility.yul\":2968:2987   */\n      add\n        /* \"#utility.yul\":2959:2965   */\n      dup6\n        /* \"#utility.yul\":2915:2988   */\n      tag_67\n      jump\t// in\n    tag_117:\n        /* \"#utility.yul\":2998:3065   */\n      tag_118\n        /* \"#utility.yul\":3060:3063   */\n      0xc0\n        /* \"#utility.yul\":3049:3058   */\n      dup4\n        /* \"#utility.yul\":3045:3064   */\n      add\n        /* \"#utility.yul\":3036:3042   */\n      dup5\n        /* \"#utility.yul\":2998:3065   */\n      tag_69\n      jump\t// in\n    tag_118:\n        /* \"#utility.yul\":2198:3072   */\n      swap9\n      swap8\n      pop\n      pop\n      pop\n      pop\n      pop\n      pop\n      pop\n      pop\n      jump\t// out\n        /* \"#utility.yul\":3078:3300   */\n    tag_26:\n        /* \"#utility.yul\":3171:3175   */\n      0x00\n        /* \"#utility.yul\":3209:3211   */\n      0x20\n        /* \"#utility.yul\":3198:3207   */\n      dup3\n        /* \"#utility.yul\":3194:3212   */\n      add\n        /* \"#utility.yul\":3186:3212   */\n      swap1\n      pop\n        /* \"#utility.yul\":3222:3293   */\n      tag_120\n        /* \"#utility.yul\":3290:3291   */\n      0x00\n        /* \"#utility.yul\":3279:3288   */\n      dup4\n        /* \"#utility.yul\":3275:3292   */\n      add\n        /* \"#utility.yul\":3266:3272   */\n      dup5\n        /* \"#utility.yul\":3222:3293   */\n      tag_66\n      jump\t// in\n    tag_120:\n        /* \"#utility.yul\":3078:3300   */\n      swap3\n      swap2\n      pop\n      pop\n      jump\t// out\n        /* \"#utility.yul\":3306:3528   */\n    tag_31:\n        /* \"#utility.yul\":3399:3403   */\n      0x00\n        /* \"#utility.yul\":3437:3439   */\n      0x20\n        /* \"#utility.yul\":3426:3435   */\n      dup3\n        /* \"#utility.yul\":3422:3440   */\n      add\n        /* \"#utility.yul\":3414:3440   */\n      swap1\n      pop\n        /* \"#utility.yul\":3450:3521   */\n      tag_122\n        /* \"#utility.yul\":3518:3519   */\n      0x00\n        /* \"#utility.yul\":3507:3516   */\n      dup4\n        /* \"#utility.yul\":3503:3520   */\n      add\n        /* \"#utility.yul\":3494:3500   */\n      dup5\n        /* \"#utility.yul\":3450:3521   */\n      tag_67\n      jump\t// in\n    tag_122:\n        /* \"#utility.yul\":3306:3528   */\n      swap3\n      swap2\n      pop\n      pop\n      jump\t// out\n        /* \"#utility.yul\":3534:3703   */\n    tag_70:\n        /* \"#utility.yul\":3618:3629   */\n      0x00\n        /* \"#utility.yul\":3652:3658   */\n      dup3\n        /* \"#utility.yul\":3647:3650   */\n      dup3\n        /* \"#utility.yul\":3640:3659   */\n      mstore\n        /* \"#utility.yul\":3692:3696   */\n      0x20\n        /* \"#utility.yul\":3687:3690   */\n      dup3\n        /* \"#utility.yul\":3683:3697   */\n      add\n        /* \"#utility.yul\":3668:3697   */\n      swap1\n      pop\n        /* \"#utility.yul\":3534:3703   */\n      swap3\n      swap2\n      pop\n      pop\n      jump\t// out\n        /* \"#utility.yul\":3709:3930   */\n    tag_71:\n        /* \"#utility.yul\":3849:3883   */\n      0x5374617274207072696365206d7573742062652067726561746572207468616e\n        /* \"#utility.yul\":3845:3846   */\n      0x00\n        /* \"#utility.yul\":3837:3843   */\n      dup3\n        /* \"#utility.yul\":3833:3847   */\n      add\n        /* \"#utility.yul\":3826:3884   */\n      mstore\n        /* \"#utility.yul\":3918:3922   */\n      0x2030000000000000000000000000000000000000000000000000000000000000\n        /* \"#utility.yul\":3913:3915   */\n      0x20\n        /* \"#utility.yul\":3905:3911   */\n      dup3\n        /* \"#utility.yul\":3901:3916   */\n      add\n        /* \"#utility.yul\":3894:3923   */\n      mstore\n        /* \"#utility.yul\":3709:3930   */\n      pop\n      jump\t// out\n        /* \"#utility.yul\":3936:4302   */\n    tag_72:\n        /* \"#utility.yul\":4078:4081   */\n      0x00\n        /* \"#utility.yul\":4099:4166   */\n      tag_126\n        /* \"#utility.yul\":4163:4165   */\n      0x22\n        /* \"#utility.yul\":4158:4161   */\n      dup4\n        /* \"#utility.yul\":4099:4166   */\n      tag_70\n      jump\t// in\n    tag_126:\n        /* \"#utility.yul\":4092:4166   */\n      swap2\n      pop\n        /* \"#utility.yul\":4175:4268   */\n      tag_127\n        /* \"#utility.yul\":4264:4267   */\n      dup3\n        /* \"#utility.yul\":4175:4268   */\n      tag_71\n      jump\t// in\n    tag_127:\n        /* \"#utility.yul\":4293:4295   */\n      0x40\n        /* \"#utility.yul\":4288:4291   */\n      dup3\n        /* \"#utility.yul\":4284:4296   */\n      add\n        /* \"#utility.yul\":4277:4296   */\n      swap1\n      pop\n        /* \"#utility.yul\":3936:4302   */\n      swap2\n      swap1\n      pop\n      jump\t// out\n        /* \"#utility.yul\":4308:4727   */\n    tag_35:\n        /* \"#utility.yul\":4474:4478   */\n      0x00\n        /* \"#utility.yul\":4512:4514   */\n      0x20\n        /* \"#utility.yul\":4501:4510   */\n      dup3\n        /* \"#utility.yul\":4497:4515   */\n      add\n        /* \"#utility.yul\":4489:4515   */\n      swap1\n      pop\n        /* \"#utility.yul\":4561:4570   */\n      dup2\n        /* \"#utility.yul\":4555:4559   */\n      dup2\n        /* \"#utility.yul\":4551:4571   */\n      sub\n        /* \"#utility.yul\":4547:4548   */\n      0x00\n        /* \"#utility.yul\":4536:4545   */\n      dup4\n        /* \"#utility.yul\":4532:4549   */\n      add\n        /* \"#utility.yul\":4525:4572   */\n      mstore\n        /* \"#utility.yul\":4589:4720   */\n      tag_129\n        /* \"#utility.yul\":4715:4719   */\n      dup2\n        /* \"#utility.yul\":4589:4720   */\n      tag_72\n      jump\t// in\n    tag_129:\n        /* \"#utility.yul\":4581:4720   */\n      swap1\n      pop\n        /* \"#utility.yul\":4308:4727   */\n      swap2\n      swap1\n      pop\n      jump\t// out\n        /* \"#utility.yul\":4733:4958   */\n    tag_73:\n        /* \"#utility.yul\":4873:4907   */\n      0x4475726174696f6e206d7573742062652067726561746572207468616e203120\n        /* \"#utility.yul\":4869:4870   */\n      0x00\n        /* \"#utility.yul\":4861:4867   */\n      dup3\n        /* \"#utility.yul\":4857:4871   */\n      add\n        /* \"#utility.yul\":4850:4908   */\n      mstore\n        /* \"#utility.yul\":4942:4950   */\n      0x6d696e7574650000000000000000000000000000000000000000000000000000\n        /* \"#utility.yul\":4937:4939   */\n      0x20\n        /* \"#utility.yul\":4929:4935   */\n      dup3\n        /* \"#utility.yul\":4925:4940   */\n      add\n        /* \"#utility.yul\":4918:4951   */\n      mstore\n        /* \"#utility.yul\":4733:4958   */\n      pop\n      jump\t// out\n        /* \"#utility.yul\":4964:5330   */\n    tag_74:\n        /* \"#utility.yul\":5106:5109   */\n      0x00\n        /* \"#utility.yul\":5127:5194   */\n      tag_132\n        /* \"#utility.yul\":5191:5193   */\n      0x26\n        /* \"#utility.yul\":5186:5189   */\n      dup4\n        /* \"#utility.yul\":5127:5194   */\n      tag_70\n      jump\t// in\n    tag_132:\n        /* \"#utility.yul\":5120:5194   */\n      swap2\n      pop\n        /* \"#utility.yul\":5203:5296   */\n      tag_133\n        /* \"#utility.yul\":5292:5295   */\n      dup3\n        /* \"#utility.yul\":5203:5296   */\n      tag_73\n      jump\t// in\n    tag_133:\n        /* \"#utility.yul\":5321:5323   */\n      0x40\n        /* \"#utility.yul\":5316:5319   */\n      dup3\n        /* \"#utility.yul\":5312:5324   */\n      add\n        /* \"#utility.yul\":5305:5324   */\n      swap1\n      pop\n        /* \"#utility.yul\":4964:5330   */\n      swap2\n      swap1\n      pop\n      jump\t// out\n        /* \"#utility.yul\":5336:5755   */\n    tag_38:\n        /* \"#utility.yul\":5502:5506   */\n      0x00\n        /* \"#utility.yul\":5540:5542   */\n      0x20\n        /* \"#utility.yul\":5529:5538   */\n      dup3\n        /* \"#utility.yul\":5525:5543   */\n      add\n        /* \"#utility.yul\":5517:5543   */\n      swap1\n      pop\n        /* \"#utility.yul\":5589:5598   */\n      dup2\n        /* \"#utility.yul\":5583:5587   */\n      dup2\n        /* \"#utility.yul\":5579:5599   */\n      sub\n        /* \"#utility.yul\":5575:5576   */\n      0x00\n        /* \"#utility.yul\":5564:5573   */\n      dup4\n        /* \"#utility.yul\":5560:5577   */\n      add\n        /* \"#utility.yul\":5553:5600   */\n      mstore\n        /* \"#utility.yul\":5617:5748   */\n      tag_135\n        /* \"#utility.yul\":5743:5747   */\n      dup2\n        /* \"#utility.yul\":5617:5748   */\n      tag_74\n      jump\t// in\n    tag_135:\n        /* \"#utility.yul\":5609:5748   */\n      swap1\n      pop\n        /* \"#utility.yul\":5336:5755   */\n      swap2\n      swap1\n      pop\n      jump\t// out\n        /* \"#utility.yul\":5761:5940   */\n    tag_75:\n        /* \"#utility.yul\":5901:5932   */\n      0x4f6e6c792061646d696e2063616e206372656174652061756374696f6e000000\n        /* \"#utility.yul\":5897:5898   */\n      0x00\n        /* \"#utility.yul\":5889:5895   */\n      dup3\n        /* \"#utility.yul\":5885:5899   */\n      add\n        /* \"#utility.yul\":5878:5933   */\n      mstore\n        /* \"#utility.yul\":5761:5940   */\n      pop\n      jump\t// out\n        /* \"#utility.yul\":5946:6312   */\n    tag_76:\n        /* \"#utility.yul\":6088:6091   */\n      0x00\n        /* \"#utility.yul\":6109:6176   */\n      tag_138\n        /* \"#utility.yul\":6173:6175   */\n      0x1d\n        /* \"#utility.yul\":6168:6171   */\n      dup4\n        /* \"#utility.yul\":6109:6176   */\n      tag_70\n      jump\t// in\n    tag_138:\n        /* \"#utility.yul\":6102:6176   */\n      swap2\n      pop\n        /* \"#utility.yul\":6185:6278   */\n      tag_139\n        /* \"#utility.yul\":6274:6277   */\n      dup3\n        /* \"#utility.yul\":6185:6278   */\n      tag_75\n      jump\t// in\n    tag_139:\n        /* \"#utility.yul\":6303:6305   */\n      0x20\n        /* \"#utility.yul\":6298:6301   */\n      dup3\n        /* \"#utility.yul\":6294:6306   */\n      add\n        /* \"#utility.yul\":6287:6306   */\n      swap1\n      pop\n        /* \"#utility.yul\":5946:6312   */\n      swap2\n      swap1\n      pop\n      jump\t// out\n        /* \"#utility.yul\":6318:6737   */\n    tag_41:\n        /* \"#utility.yul\":6484:6488   */\n      0x00\n        /* \"#utility.yul\":6522:6524   */\n      0x20\n        /* \"#utility.yul\":6511:6520   */\n      dup3\n        /* \"#utility.yul\":6507:6525   */\n      add\n        /* \"#utility.yul\":6499:6525   */\n      swap1\n      pop\n        /* \"#utility.yul\":6571:6580   */\n      dup2\n        /* \"#utility.yul\":6565:6569   */\n      dup2\n        /* \"#utility.yul\":6561:6581   */\n      sub\n        /* \"#utility.yul\":6557:6558   */\n      0x00\n        /* \"#utility.yul\":6546:6555   */\n      dup4\n        /* \"#utility.yul\":6542:6559   */\n      add\n        /* \"#utility.yul\":6535:6582   */\n      mstore\n        /* \"#utility.yul\":6599:6730   */\n      tag_141\n        /* \"#utility.yul\":6725:6729   */\n      dup2\n        /* \"#utility.yul\":6599:6730   */\n      tag_76\n      jump\t// in\n    tag_141:\n        /* \"#utility.yul\":6591:6730   */\n      swap1\n      pop\n        /* \"#utility.yul\":6318:6737   */\n      swap2\n      swap1\n      pop\n      jump\t// out\n        /* \"#utility.yul\":6743:6923   */\n    tag_77:\n        /* \"#utility.yul\":6791:6868   */\n      0x4e487b7100000000000000000000000000000000000000000000000000000000\n        /* \"#utility.yul\":6788:6789   */\n      0x00\n        /* \"#utility.yul\":6781:6869   */\n      mstore\n        /* \"#utility.yul\":6888:6892   */\n      0x11\n        /* \"#utility.yul\":6885:6886   */\n      0x04\n        /* \"#utility.yul\":6878:6893   */\n      mstore\n        /* \"#utility.yul\":6912:6916   */\n      0x24\n        /* \"#utility.yul\":6909:6910   */\n      0x00\n        /* \"#utility.yul\":6902:6917   */\n      revert\n        /* \"#utility.yul\":6929:7162   */\n    tag_43:\n        /* \"#utility.yul\":6968:6971   */\n      0x00\n        /* \"#utility.yul\":6991:7015   */\n      tag_144\n        /* \"#utility.yul\":7009:7014   */\n      dup3\n        /* \"#utility.yul\":6991:7015   */\n      tag_61\n      jump\t// in\n    tag_144:\n        /* \"#utility.yul\":6982:7015   */\n      swap2\n      pop\n        /* \"#utility.yul\":7037:7103   */\n      0xffffffffffffffffffffffffffffffffffffffffffffffffffffffffffffffff\n        /* \"#utility.yul\":7030:7035   */\n      dup3\n        /* \"#utility.yul\":7027:7104   */\n      sub\n        /* \"#utility.yul\":7024:7127   */\n      tag_145\n      jumpi\n        /* \"#utility.yul\":7107:7125   */\n      tag_146\n      tag_77\n      jump\t// in\n    tag_146:\n        /* \"#utility.yul\":7024:7127   */\n    tag_145:\n        /* \"#utility.yul\":7154:7155   */\n      0x01\n        /* \"#utility.yul\":7147:7152   */\n      dup3\n        /* \"#utility.yul\":7143:7156   */\n      add\n        /* \"#utility.yul\":7136:7156   */\n      swap1\n      pop\n        /* \"#utility.yul\":6929:7162   */\n      swap2\n      swap1\n      pop\n      jump\t// out\n        /* \"#utility.yul\":7168:7359   */\n    tag_47:\n        /* \"#utility.yul\":7208:7211   */\n      0x00\n        /* \"#utility.yul\":7227:7247   */\n      tag_148\n        /* \"#utility.yul\":7245:7246   */\n      dup3\n        /* \"#utility.yul\":7227:7247   */\n      tag_61\n      jump\t// in\n    tag_148:\n        /* \"#utility.yul\":7222:7247   */\n      swap2\n      pop\n        /* \"#utility.yul\":7261:7281   */\n      tag_149\n        /* \"#utility.yul\":7279:7280   */\n      dup4\n        /* \"#utility.yul\":7261:7281   */\n      tag_61\n      jump\t// in\n    tag_149:\n        /* \"#utility.yul\":7256:7281   */\n      swap3\n      pop\n        /* \"#utility.yul\":7304:7305   */\n      dup3\n        /* \"#utility.yul\":7301:7302   */\n      dup3\n        /* \"#utility.yul\":7297:7306   */\n      add\n        /* \"#utility.yul\":7290:7306   */\n      swap1\n      pop\n        /* \"#utility.yul\":7325:7328   */\n      dup1\n        /* \"#utility.yul\":7322:7323   */\n      dup3\n        /* \"#utility.yul\":7319:7329   */\n      gt\n        /* \"#utility.yul\":7316:7352   */\n      iszero\n      tag_150\n      jumpi\n        /* \"#utility.yul\":7332:7350   */\n      tag_151\n      tag_77\n      jump\t// in\n    tag_151:\n        /* \"#utility.yul\":7316:7352   */\n    tag_150:\n        /* \"#utility.yul\":7168:7359   */\n      swap3\n      swap2\n      pop\n      pop\n      jump\t// out\n        /* \"#utility.yul\":7365:7536   */\n    tag_78:\n        /* \"#utility.yul\":7505:7528   */\n      0x41756374696f6e20616c726561647920656e6465640000000000000000000000\n        /* \"#utility.yul\":7501:7502   */\n      0x00\n        /* \"#utility.yul\":7493:7499   */\n      dup3\n        /* \"#utility.yul\":7489:7503   */\n      add\n        /* \"#utility.yul\":7482:7529   */\n      mstore\n        /* \"#utility.yul\":7365:7536   */\n      pop\n      jump\t// out\n        /* \"#utility.yul\":7542:7908   */\n    tag_79:\n        /* \"#utility.yul\":7684:7687   */\n      0x00\n        /* \"#utility.yul\":7705:7772   */\n      tag_154\n        /* \"#utility.yul\":7769:7771   */\n      0x15\n        /* \"#utility.yul\":7764:7767   */\n      dup4\n        /* \"#utility.yul\":7705:7772   */\n      tag_70\n      jump\t// in\n    tag_154:\n        /* \"#utility.yul\":7698:7772   */\n      swap2\n      pop\n        /* \"#utility.yul\":7781:7874   */\n      tag_155\n        /* \"#utility.yul\":7870:7873   */\n      dup3\n        /* \"#utility.yul\":7781:7874   */\n      tag_78\n      jump\t// in\n    tag_155:\n        /* \"#utility.yul\":7899:7901   */\n      0x20\n        /* \"#utility.yul\":7894:7897   */\n      dup3\n        /* \"#utility.yul\":7890:7902   */\n      add\n        /* \"#utility.yul\":7883:7902   */\n      swap1\n      pop\n        /* \"#utility.yul\":7542:7908   */\n      swap2\n      swap1\n      pop\n      jump\t// out\n        /* \"#utility.yul\":7914:8333   */\n    tag_50:\n        /* \"#utility.yul\":8080:8084   */\n      0x00\n        /* \"#utility.yul\":8118:8120   */\n      0x20\n        /* \"#utility.yul\":8107:8116   */\n      dup3\n        /* \"#utility.yul\":8103:8121   */\n      add\n        /* \"#utility.yul\":8095:8121   */\n      swap1\n      pop\n        /* \"#utility.yul\":8167:8176   */\n      dup2\n        /* \"#utility.yul\":8161:8165   */\n      dup2\n        /* \"#utility.yul\":8157:8177   */\n      sub\n        /* \"#utility.yul\":8153:8154   */\n      0x00\n        /* \"#utility.yul\":8142:8151   */\n      dup4\n        /* \"#utility.yul\":8138:8155   */\n      add\n        /* \"#utility.yul\":8131:8178   */\n      mstore\n        /* \"#utility.yul\":8195:8326   */\n      tag_157\n        /* \"#utility.yul\":8321:8325   */\n      dup2\n        /* \"#utility.yul\":8195:8326   */\n      tag_79\n      jump\t// in\n    tag_157:\n        /* \"#utility.yul\":8187:8326   */\n      swap1\n      pop\n        /* \"#utility.yul\":7914:8333   */\n      swap2\n      swap1\n      pop\n      jump\t// out\n        /* \"#utility.yul\":8339:8573   */\n    tag_80:\n        /* \"#utility.yul\":8479:8513   */\n      0x426964206d75737420626520686967686572207468616e207468652063757272\n        /* \"#utility.yul\":8475:8476   */\n      0x00\n        /* \"#utility.yul\":8467:8473   */\n      dup3\n        /* \"#utility.yul\":8463:8477   */\n      add\n        /* \"#utility.yul\":8456:8514   */\n      mstore\n        /* \"#utility.yul\":8548:8565   */\n      0x656e742068696768657374206269640000000000000000000000000000000000\n        /* \"#utility.yul\":8543:8545   */\n      0x20\n        /* \"#utility.yul\":8535:8541   */\n      dup3\n        /* \"#utility.yul\":8531:8546   */\n      add\n        /* \"#utility.yul\":8524:8566   */\n      mstore\n        /* \"#utility.yul\":8339:8573   */\n      pop\n      jump\t// out\n        /* \"#utility.yul\":8579:8945   */\n    tag_81:\n        /* \"#utility.yul\":8721:8724   */\n      0x00\n        /* \"#utility.yul\":8742:8809   */\n      tag_160\n        /* \"#utility.yul\":8806:8808   */\n      0x2f\n        /* \"#utility.yul\":8801:8804   */\n      dup4\n        /* \"#utility.yul\":8742:8809   */\n      tag_70\n      jump\t// in\n    tag_160:\n        /* \"#utility.yul\":8735:8809   */\n      swap2\n      pop\n        /* \"#utility.yul\":8818:8911   */\n      tag_161\n        /* \"#utility.yul\":8907:8910   */\n      dup3\n        /* \"#utility.yul\":8818:8911   */\n      tag_80\n      jump\t// in\n    tag_161:\n        /* \"#utility.yul\":8936:8938   */\n      0x40\n        /* \"#utility.yul\":8931:8934   */\n      dup3\n        /* \"#utility.yul\":8927:8939   */\n      add\n        /* \"#utility.yul\":8920:8939   */\n      swap1\n      pop\n        /* \"#utility.yul\":8579:8945   */\n      swap2\n      swap1\n      pop\n      jump\t// out\n        /* \"#utility.yul\":8951:9370   */\n    tag_54:\n        /* \"#utility.yul\":9117:9121   */\n      0x00\n        /* \"#utility.yul\":9155:9157   */\n      0x20\n        /* \"#utility.yul\":9144:9153   */\n      dup3\n        /* \"#utility.yul\":9140:9158   */\n      add\n        /* \"#utility.yul\":9132:9158   */\n      swap1\n      pop\n        /* \"#utility.yul\":9204:9213   */\n      dup2\n        /* \"#utility.yul\":9198:9202   */\n      dup2\n        /* \"#utility.yul\":9194:9214   */\n      sub\n        /* \"#utility.yul\":9190:9191   */\n      0x00\n        /* \"#utility.yul\":9179:9188   */\n      dup4\n        /* \"#utility.yul\":9175:9192   */\n      add\n        /* \"#utility.yul\":9168:9215   */\n      mstore\n        /* \"#utility.yul\":9232:9363   */\n      tag_163\n        /* \"#utility.yul\":9358:9362   */\n      dup2\n        /* \"#utility.yul\":9232:9363   */\n      tag_81\n      jump\t// in\n    tag_163:\n        /* \"#utility.yul\":9224:9363   */\n      swap1\n      pop\n        /* \"#utility.yul\":8951:9370   */\n      swap2\n      swap1\n      pop\n      jump\t// out\n\n    auxdata: 0xa26469706673582212206701fcc4f356702fca6b9739877b2ec0c74a7722340bf1f0a7b18f3d7f15439b64736f6c634300081a0033\n}\n",
				"bytecode": {
					"linkReferences": {},
					"object": "6080604052348015600e575f80fd5b503360025f6101000a81548173ffffffffffffffffffffffffffffffffffffffff021916908373ffffffffffffffffffffffffffffffffffffffff160217905550610b468061005c5f395ff3fe608060405260043610610049575f3560e01c80630121683f1461004d578063571a26a014610075578063b30aeee7146100b7578063f851a440146100d3578063fc528482146100fd575b5f80fd5b348015610058575f80fd5b50610073600480360381019061006e919061066f565b610127565b005b348015610080575f80fd5b5061009b600480360381019061009691906106ad565b61039e565b6040516100ae9796959493929190610740565b60405180910390f35b6100d160048036038101906100cc91906106ad565b610425565b005b3480156100de575f80fd5b506100e761060d565b6040516100f491906107ad565b60405180910390f35b348015610108575f80fd5b50610111610632565b60405161011e91906107c6565b60405180910390f35b5f8211610169576040517f08c379a00000000000000000000000000000000000000000000000000000000081526004016101609061085f565b60405180910390fd5b61ea6081116101ad576040517f08c379a00000000000000000000000000000000000000000000000000000000081526004016101a4906108ed565b60405180910390fd5b60025f9054906101000a900473ffffffffffffffffffffffffffffffffffffffff1673ffffffffffffffffffffffffffffffffffffffff163373ffffffffffffffffffffffffffffffffffffffff161461023c576040517f08c379a000000000000000000000000000000000000000000000000000000000815260040161023390610955565b60405180910390fd5b6040518060e001604052803373ffffffffffffffffffffffffffffffffffffffff1681526020018381526020018281526020014281526020015f73ffffffffffffffffffffffffffffffffffffffff1681526020015f81526020015f15158152505f8060015481526020019081526020015f205f820151815f015f6101000a81548173ffffffffffffffffffffffffffffffffffffffff021916908373ffffffffffffffffffffffffffffffffffffffff1602179055506020820151816001015560408201518160020155606082015181600301556080820151816004015f6101000a81548173ffffffffffffffffffffffffffffffffffffffff021916908373ffffffffffffffffffffffffffffffffffffffff16021790555060a0820151816005015560c0820151816006015f6101000a81548160ff02191690831515021790555090505060015f815480929190610395906109a0565b91905055505050565b5f602052805f5260405f205f91509050805f015f9054906101000a900473ffffffffffffffffffffffffffffffffffffffff1690806001015490806002015490806003015490806004015f9054906101000a900473ffffffffffffffffffffffffffffffffffffffff1690806005015490806006015f9054906101000a900460ff16905087565b5f805f8381526020019081526020015f209050806006015f9054906101000a900460ff1615801561046857508060020154816003015461046591906109e7565b42105b6104a7576040517f08c379a000000000000000000000000000000000000000000000000000000000815260040161049e90610a64565b60405180910390fd5b8060050154341180156104bd5750806001015434115b6104fc576040517f08c379a00000000000000000000000000000000000000000000000000000000081526004016104f390610af2565b60405180910390fd5b5f73ffffffffffffffffffffffffffffffffffffffff16816004015f9054906101000a900473ffffffffffffffffffffffffffffffffffffffff1673ffffffffffffffffffffffffffffffffffffffff16146105be57806004015f9054906101000a900473ffffffffffffffffffffffffffffffffffffffff1673ffffffffffffffffffffffffffffffffffffffff166108fc826005015490811502906040515f60405180830381858888f193505050501580156105bc573d5f803e3d5ffd5b505b33816004015f6101000a81548173ffffffffffffffffffffffffffffffffffffffff021916908373ffffffffffffffffffffffffffffffffffffffff1602179055503481600501819055505050565b60025f9054906101000a900473ffffffffffffffffffffffffffffffffffffffff1681565b60015481565b5f80fd5b5f819050919050565b61064e8161063c565b8114610658575f80fd5b50565b5f8135905061066981610645565b92915050565b5f806040838503121561068557610684610638565b5b5f6106928582860161065b565b92505060206106a38582860161065b565b9150509250929050565b5f602082840312156106c2576106c1610638565b5b5f6106cf8482850161065b565b91505092915050565b5f73ffffffffffffffffffffffffffffffffffffffff82169050919050565b5f610701826106d8565b9050919050565b610711816106f7565b82525050565b6107208161063c565b82525050565b5f8115159050919050565b61073a81610726565b82525050565b5f60e0820190506107535f83018a610708565b6107606020830189610717565b61076d6040830188610717565b61077a6060830187610717565b6107876080830186610708565b61079460a0830185610717565b6107a160c0830184610731565b98975050505050505050565b5f6020820190506107c05f830184610708565b92915050565b5f6020820190506107d95f830184610717565b92915050565b5f82825260208201905092915050565b7f5374617274207072696365206d7573742062652067726561746572207468616e5f8201527f2030000000000000000000000000000000000000000000000000000000000000602082015250565b5f6108496022836107df565b9150610854826107ef565b604082019050919050565b5f6020820190508181035f8301526108768161083d565b9050919050565b7f4475726174696f6e206d7573742062652067726561746572207468616e2031205f8201527f6d696e7574650000000000000000000000000000000000000000000000000000602082015250565b5f6108d76026836107df565b91506108e28261087d565b604082019050919050565b5f6020820190508181035f830152610904816108cb565b9050919050565b7f4f6e6c792061646d696e2063616e206372656174652061756374696f6e0000005f82015250565b5f61093f601d836107df565b915061094a8261090b565b602082019050919050565b5f6020820190508181035f83015261096c81610933565b9050919050565b7f4e487b71000000000000000000000000000000000000000000000000000000005f52601160045260245ffd5b5f6109aa8261063c565b91507fffffffffffffffffffffffffffffffffffffffffffffffffffffffffffffffff82036109dc576109db610973565b5b600182019050919050565b5f6109f18261063c565b91506109fc8361063c565b9250828201905080821115610a1457610a13610973565b5b92915050565b7f41756374696f6e20616c726561647920656e64656400000000000000000000005f82015250565b5f610a4e6015836107df565b9150610a5982610a1a565b602082019050919050565b5f6020820190508181035f830152610a7b81610a42565b9050919050565b7f426964206d75737420626520686967686572207468616e2074686520637572725f8201527f656e742068696768657374206269640000000000000000000000000000000000602082015250565b5f610adc602f836107df565b9150610ae782610a82565b604082019050919050565b5f6020820190508181035f830152610b0981610ad0565b905091905056fea26469706673582212206701fcc4f356702fca6b9739877b2ec0c74a7722340bf1f0a7b18f3d7f15439b64736f6c634300081a0033",
					"opcodes": "PUSH1 0x80 PUSH1 0x40 MSTORE CALLVALUE DUP1 ISZERO PUSH1 0xE JUMPI PUSH0 DUP1 REVERT JUMPDEST POP CALLER PUSH1 0x2 PUSH0 PUSH2 0x100 EXP DUP2 SLOAD DUP2 PUSH20 0xFFFFFFFFFFFFFFFFFFFFFFFFFFFFFFFFFFFFFFFF MUL NOT AND SWAP1 DUP4 PUSH20 0xFFFFFFFFFFFFFFFFFFFFFFFFFFFFFFFFFFFFFFFF AND MUL OR SWAP1 SSTORE POP PUSH2 0xB46 DUP1 PUSH2 0x5C PUSH0 CODECOPY PUSH0 RETURN INVALID PUSH1 0x80 PUSH1 0x40 MSTORE PUSH1 0x4 CALLDATASIZE LT PUSH2 0x49 JUMPI PUSH0 CALLDATALOAD PUSH1 0xE0 SHR DUP1 PUSH4 0x121683F EQ PUSH2 0x4D JUMPI DUP1 PUSH4 0x571A26A0 EQ PUSH2 0x75 JUMPI DUP1 PUSH4 0xB30AEEE7 EQ PUSH2 0xB7 JUMPI DUP1 PUSH4 0xF851A440 EQ PUSH2 0xD3 JUMPI DUP1 PUSH4 0xFC528482 EQ PUSH2 0xFD JUMPI JUMPDEST PUSH0 DUP1 REVERT JUMPDEST CALLVALUE DUP1 ISZERO PUSH2 0x58 JUMPI PUSH0 DUP1 REVERT JUMPDEST POP PUSH2 0x73 PUSH1 0x4 DUP1 CALLDATASIZE SUB DUP2 ADD SWAP1 PUSH2 0x6E SWAP2 SWAP1 PUSH2 0x66F JUMP JUMPDEST PUSH2 0x127 JUMP JUMPDEST STOP JUMPDEST CALLVALUE DUP1 ISZERO PUSH2 0x80 JUMPI PUSH0 DUP1 REVERT JUMPDEST POP PUSH2 0x9B PUSH1 0x4 DUP1 CALLDATASIZE SUB DUP2 ADD SWAP1 PUSH2 0x96 SWAP2 SWAP1 PUSH2 0x6AD JUMP JUMPDEST PUSH2 0x39E JUMP JUMPDEST PUSH1 0x40 MLOAD PUSH2 0xAE SWAP8 SWAP7 SWAP6 SWAP5 SWAP4 SWAP3 SWAP2 SWAP1 PUSH2 0x740 JUMP JUMPDEST PUSH1 0x40 MLOAD DUP1 SWAP2 SUB SWAP1 RETURN JUMPDEST PUSH2 0xD1 PUSH1 0x4 DUP1 CALLDATASIZE SUB DUP2 ADD SWAP1 PUSH2 0xCC SWAP2 SWAP1 PUSH2 0x6AD JUMP JUMPDEST PUSH2 0x425 JUMP JUMPDEST STOP JUMPDEST CALLVALUE DUP1 ISZERO PUSH2 0xDE JUMPI PUSH0 DUP1 REVERT JUMPDEST POP PUSH2 0xE7 PUSH2 0x60D JUMP JUMPDEST PUSH1 0x40 MLOAD PUSH2 0xF4 SWAP2 SWAP1 PUSH2 0x7AD JUMP JUMPDEST PUSH1 0x40 MLOAD DUP1 SWAP2 SUB SWAP1 RETURN JUMPDEST CALLVALUE DUP1 ISZERO PUSH2 0x108 JUMPI PUSH0 DUP1 REVERT JUMPDEST POP PUSH2 0x111 PUSH2 0x632 JUMP JUMPDEST PUSH1 0x40 MLOAD PUSH2 0x11E SWAP2 SWAP1 PUSH2 0x7C6 JUMP JUMPDEST PUSH1 0x40 MLOAD DUP1 SWAP2 SUB SWAP1 RETURN JUMPDEST PUSH0 DUP3 GT PUSH2 0x169 JUMPI PUSH1 0x40 MLOAD PUSH32 0x8C379A000000000000000000000000000000000000000000000000000000000 DUP2 MSTORE PUSH1 0x4 ADD PUSH2 0x160 SWAP1 PUSH2 0x85F JUMP JUMPDEST PUSH1 0x40 MLOAD DUP1 SWAP2 SUB SWAP1 REVERT JUMPDEST PUSH2 0xEA60 DUP2 GT PUSH2 0x1AD JUMPI PUSH1 0x40 MLOAD PUSH32 0x8C379A000000000000000000000000000000000000000000000000000000000 DUP2 MSTORE PUSH1 0x4 ADD PUSH2 0x1A4 SWAP1 PUSH2 0x8ED JUMP JUMPDEST PUSH1 0x40 MLOAD DUP1 SWAP2 SUB SWAP1 REVERT JUMPDEST PUSH1 0x2 PUSH0 SWAP1 SLOAD SWAP1 PUSH2 0x100 EXP SWAP1 DIV PUSH20 0xFFFFFFFFFFFFFFFFFFFFFFFFFFFFFFFFFFFFFFFF AND PUSH20 0xFFFFFFFFFFFFFFFFFFFFFFFFFFFFFFFFFFFFFFFF AND CALLER PUSH20 0xFFFFFFFFFFFFFFFFFFFFFFFFFFFFFFFFFFFFFFFF AND EQ PUSH2 0x23C JUMPI PUSH1 0x40 MLOAD PUSH32 0x8C379A000000000000000000000000000000000000000000000000000000000 DUP2 MSTORE PUSH1 0x4 ADD PUSH2 0x233 SWAP1 PUSH2 0x955 JUMP JUMPDEST PUSH1 0x40 MLOAD DUP1 SWAP2 SUB SWAP1 REVERT JUMPDEST PUSH1 0x40 MLOAD DUP1 PUSH1 0xE0 ADD PUSH1 0x40 MSTORE DUP1 CALLER PUSH20 0xFFFFFFFFFFFFFFFFFFFFFFFFFFFFFFFFFFFFFFFF AND DUP2 MSTORE PUSH1 0x20 ADD DUP4 DUP2 MSTORE PUSH1 0x20 ADD DUP3 DUP2 MSTORE PUSH1 0x20 ADD TIMESTAMP DUP2 MSTORE PUSH1 0x20 ADD PUSH0 PUSH20 0xFFFFFFFFFFFFFFFFFFFFFFFFFFFFFFFFFFFFFFFF AND DUP2 MSTORE PUSH1 0x20 ADD PUSH0 DUP2 MSTORE PUSH1 0x20 ADD PUSH0 ISZERO ISZERO DUP2 MSTORE POP PUSH0 DUP1 PUSH1 0x1 SLOAD DUP2 MSTORE PUSH1 0x20 ADD SWAP1 DUP2 MSTORE PUSH1 0x20 ADD PUSH0 KECCAK256 PUSH0 DUP3 ADD MLOAD DUP2 PUSH0 ADD PUSH0 PUSH2 0x100 EXP DUP2 SLOAD DUP2 PUSH20 0xFFFFFFFFFFFFFFFFFFFFFFFFFFFFFFFFFFFFFFFF MUL NOT AND SWAP1 DUP4 PUSH20 0xFFFFFFFFFFFFFFFFFFFFFFFFFFFFFFFFFFFFFFFF AND MUL OR SWAP1 SSTORE POP PUSH1 0x20 DUP3 ADD MLOAD DUP2 PUSH1 0x1 ADD SSTORE PUSH1 0x40 DUP3 ADD MLOAD DUP2 PUSH1 0x2 ADD SSTORE PUSH1 0x60 DUP3 ADD MLOAD DUP2 PUSH1 0x3 ADD SSTORE PUSH1 0x80 DUP3 ADD MLOAD DUP2 PUSH1 0x4 ADD PUSH0 PUSH2 0x100 EXP DUP2 SLOAD DUP2 PUSH20 0xFFFFFFFFFFFFFFFFFFFFFFFFFFFFFFFFFFFFFFFF MUL NOT AND SWAP1 DUP4 PUSH20 0xFFFFFFFFFFFFFFFFFFFFFFFFFFFFFFFFFFFFFFFF AND MUL OR SWAP1 SSTORE POP PUSH1 0xA0 DUP3 ADD MLOAD DUP2 PUSH1 0x5 ADD SSTORE PUSH1 0xC0 DUP3 ADD MLOAD DUP2 PUSH1 0x6 ADD PUSH0 PUSH2 0x100 EXP DUP2 SLOAD DUP2 PUSH1 0xFF MUL NOT AND SWAP1 DUP4 ISZERO ISZERO MUL OR SWAP1 SSTORE POP SWAP1 POP POP PUSH1 0x1 PUSH0 DUP2 SLOAD DUP1 SWAP3 SWAP2 SWAP1 PUSH2 0x395 SWAP1 PUSH2 0x9A0 JUMP JUMPDEST SWAP2 SWAP1 POP SSTORE POP POP POP JUMP JUMPDEST PUSH0 PUSH1 0x20 MSTORE DUP1 PUSH0 MSTORE PUSH1 0x40 PUSH0 KECCAK256 PUSH0 SWAP2 POP SWAP1 POP DUP1 PUSH0 ADD PUSH0 SWAP1 SLOAD SWAP1 PUSH2 0x100 EXP SWAP1 DIV PUSH20 0xFFFFFFFFFFFFFFFFFFFFFFFFFFFFFFFFFFFFFFFF AND SWAP1 DUP1 PUSH1 0x1 ADD SLOAD SWAP1 DUP1 PUSH1 0x2 ADD SLOAD SWAP1 DUP1 PUSH1 0x3 ADD SLOAD SWAP1 DUP1 PUSH1 0x4 ADD PUSH0 SWAP1 SLOAD SWAP1 PUSH2 0x100 EXP SWAP1 DIV PUSH20 0xFFFFFFFFFFFFFFFFFFFFFFFFFFFFFFFFFFFFFFFF AND SWAP1 DUP1 PUSH1 0x5 ADD SLOAD SWAP1 DUP1 PUSH1 0x6 ADD PUSH0 SWAP1 SLOAD SWAP1 PUSH2 0x100 EXP SWAP1 DIV PUSH1 0xFF AND SWAP1 POP DUP8 JUMP JUMPDEST PUSH0 DUP1 PUSH0 DUP4 DUP2 MSTORE PUSH1 0x20 ADD SWAP1 DUP2 MSTORE PUSH1 0x20 ADD PUSH0 KECCAK256 SWAP1 POP DUP1 PUSH1 0x6 ADD PUSH0 SWAP1 SLOAD SWAP1 PUSH2 0x100 EXP SWAP1 DIV PUSH1 0xFF AND ISZERO DUP1 ISZERO PUSH2 0x468 JUMPI POP DUP1 PUSH1 0x2 ADD SLOAD DUP2 PUSH1 0x3 ADD SLOAD PUSH2 0x465 SWAP2 SWAP1 PUSH2 0x9E7 JUMP JUMPDEST TIMESTAMP LT JUMPDEST PUSH2 0x4A7 JUMPI PUSH1 0x40 MLOAD PUSH32 0x8C379A000000000000000000000000000000000000000000000000000000000 DUP2 MSTORE PUSH1 0x4 ADD PUSH2 0x49E SWAP1 PUSH2 0xA64 JUMP JUMPDEST PUSH1 0x40 MLOAD DUP1 SWAP2 SUB SWAP1 REVERT JUMPDEST DUP1 PUSH1 0x5 ADD SLOAD CALLVALUE GT DUP1 ISZERO PUSH2 0x4BD JUMPI POP DUP1 PUSH1 0x1 ADD SLOAD CALLVALUE GT JUMPDEST PUSH2 0x4FC JUMPI PUSH1 0x40 MLOAD PUSH32 0x8C379A000000000000000000000000000000000000000000000000000000000 DUP2 MSTORE PUSH1 0x4 ADD PUSH2 0x4F3 SWAP1 PUSH2 0xAF2 JUMP JUMPDEST PUSH1 0x40 MLOAD DUP1 SWAP2 SUB SWAP1 REVERT JUMPDEST PUSH0 PUSH20 0xFFFFFFFFFFFFFFFFFFFFFFFFFFFFFFFFFFFFFFFF AND DUP2 PUSH1 0x4 ADD PUSH0 SWAP1 SLOAD SWAP1 PUSH2 0x100 EXP SWAP1 DIV PUSH20 0xFFFFFFFFFFFFFFFFFFFFFFFFFFFFFFFFFFFFFFFF AND PUSH20 0xFFFFFFFFFFFFFFFFFFFFFFFFFFFFFFFFFFFFFFFF AND EQ PUSH2 0x5BE JUMPI DUP1 PUSH1 0x4 ADD PUSH0 SWAP1 SLOAD SWAP1 PUSH2 0x100 EXP SWAP1 DIV PUSH20 0xFFFFFFFFFFFFFFFFFFFFFFFFFFFFFFFFFFFFFFFF AND PUSH20 0xFFFFFFFFFFFFFFFFFFFFFFFFFFFFFFFFFFFFFFFF AND PUSH2 0x8FC DUP3 PUSH1 0x5 ADD SLOAD SWAP1 DUP2 ISZERO MUL SWAP1 PUSH1 0x40 MLOAD PUSH0 PUSH1 0x40 MLOAD DUP1 DUP4 SUB DUP2 DUP6 DUP9 DUP9 CALL SWAP4 POP POP POP POP ISZERO DUP1 ISZERO PUSH2 0x5BC JUMPI RETURNDATASIZE PUSH0 DUP1 RETURNDATACOPY RETURNDATASIZE PUSH0 REVERT JUMPDEST POP JUMPDEST CALLER DUP2 PUSH1 0x4 ADD PUSH0 PUSH2 0x100 EXP DUP2 SLOAD DUP2 PUSH20 0xFFFFFFFFFFFFFFFFFFFFFFFFFFFFFFFFFFFFFFFF MUL NOT AND SWAP1 DUP4 PUSH20 0xFFFFFFFFFFFFFFFFFFFFFFFFFFFFFFFFFFFFFFFF AND MUL OR SWAP1 SSTORE POP CALLVALUE DUP2 PUSH1 0x5 ADD DUP2 SWAP1 SSTORE POP POP POP JUMP JUMPDEST PUSH1 0x2 PUSH0 SWAP1 SLOAD SWAP1 PUSH2 0x100 EXP SWAP1 DIV PUSH20 0xFFFFFFFFFFFFFFFFFFFFFFFFFFFFFFFFFFFFFFFF AND DUP2 JUMP JUMPDEST PUSH1 0x1 SLOAD DUP2 JUMP JUMPDEST PUSH0 DUP1 REVERT JUMPDEST PUSH0 DUP2 SWAP1 POP SWAP2 SWAP1 POP JUMP JUMPDEST PUSH2 0x64E DUP2 PUSH2 0x63C JUMP JUMPDEST DUP2 EQ PUSH2 0x658 JUMPI PUSH0 DUP1 REVERT JUMPDEST POP JUMP JUMPDEST PUSH0 DUP2 CALLDATALOAD SWAP1 POP PUSH2 0x669 DUP2 PUSH2 0x645 JUMP JUMPDEST SWAP3 SWAP2 POP POP JUMP JUMPDEST PUSH0 DUP1 PUSH1 0x40 DUP4 DUP6 SUB SLT ISZERO PUSH2 0x685 JUMPI PUSH2 0x684 PUSH2 0x638 JUMP JUMPDEST JUMPDEST PUSH0 PUSH2 0x692 DUP6 DUP3 DUP7 ADD PUSH2 0x65B JUMP JUMPDEST SWAP3 POP POP PUSH1 0x20 PUSH2 0x6A3 DUP6 DUP3 DUP7 ADD PUSH2 0x65B JUMP JUMPDEST SWAP2 POP POP SWAP3 POP SWAP3 SWAP1 POP JUMP JUMPDEST PUSH0 PUSH1 0x20 DUP3 DUP5 SUB SLT ISZERO PUSH2 0x6C2 JUMPI PUSH2 0x6C1 PUSH2 0x638 JUMP JUMPDEST JUMPDEST PUSH0 PUSH2 0x6CF DUP5 DUP3 DUP6 ADD PUSH2 0x65B JUMP JUMPDEST SWAP2 POP POP SWAP3 SWAP2 POP POP JUMP JUMPDEST PUSH0 PUSH20 0xFFFFFFFFFFFFFFFFFFFFFFFFFFFFFFFFFFFFFFFF DUP3 AND SWAP1 POP SWAP2 SWAP1 POP JUMP JUMPDEST PUSH0 PUSH2 0x701 DUP3 PUSH2 0x6D8 JUMP JUMPDEST SWAP1 POP SWAP2 SWAP1 POP JUMP JUMPDEST PUSH2 0x711 DUP2 PUSH2 0x6F7 JUMP JUMPDEST DUP3 MSTORE POP POP JUMP JUMPDEST PUSH2 0x720 DUP2 PUSH2 0x63C JUMP JUMPDEST DUP3 MSTORE POP POP JUMP JUMPDEST PUSH0 DUP2 ISZERO ISZERO SWAP1 POP SWAP2 SWAP1 POP JUMP JUMPDEST PUSH2 0x73A DUP2 PUSH2 0x726 JUMP JUMPDEST DUP3 MSTORE POP POP JUMP JUMPDEST PUSH0 PUSH1 0xE0 DUP3 ADD SWAP1 POP PUSH2 0x753 PUSH0 DUP4 ADD DUP11 PUSH2 0x708 JUMP JUMPDEST PUSH2 0x760 PUSH1 0x20 DUP4 ADD DUP10 PUSH2 0x717 JUMP JUMPDEST PUSH2 0x76D PUSH1 0x40 DUP4 ADD DUP9 PUSH2 0x717 JUMP JUMPDEST PUSH2 0x77A PUSH1 0x60 DUP4 ADD DUP8 PUSH2 0x717 JUMP JUMPDEST PUSH2 0x787 PUSH1 0x80 DUP4 ADD DUP7 PUSH2 0x708 JUMP JUMPDEST PUSH2 0x794 PUSH1 0xA0 DUP4 ADD DUP6 PUSH2 0x717 JUMP JUMPDEST PUSH2 0x7A1 PUSH1 0xC0 DUP4 ADD DUP5 PUSH2 0x731 JUMP JUMPDEST SWAP9 SWAP8 POP POP POP POP POP POP POP POP JUMP JUMPDEST PUSH0 PUSH1 0x20 DUP3 ADD SWAP1 POP PUSH2 0x7C0 PUSH0 DUP4 ADD DUP5 PUSH2 0x708 JUMP JUMPDEST SWAP3 SWAP2 POP POP JUMP JUMPDEST PUSH0 PUSH1 0x20 DUP3 ADD SWAP1 POP PUSH2 0x7D9 PUSH0 DUP4 ADD DUP5 PUSH2 0x717 JUMP JUMPDEST SWAP3 SWAP2 POP POP JUMP JUMPDEST PUSH0 DUP3 DUP3 MSTORE PUSH1 0x20 DUP3 ADD SWAP1 POP SWAP3 SWAP2 POP POP JUMP JUMPDEST PUSH32 0x5374617274207072696365206D7573742062652067726561746572207468616E PUSH0 DUP3 ADD MSTORE PUSH32 0x2030000000000000000000000000000000000000000000000000000000000000 PUSH1 0x20 DUP3 ADD MSTORE POP JUMP JUMPDEST PUSH0 PUSH2 0x849 PUSH1 0x22 DUP4 PUSH2 0x7DF JUMP JUMPDEST SWAP2 POP PUSH2 0x854 DUP3 PUSH2 0x7EF JUMP JUMPDEST PUSH1 0x40 DUP3 ADD SWAP1 POP SWAP2 SWAP1 POP JUMP JUMPDEST PUSH0 PUSH1 0x20 DUP3 ADD SWAP1 POP DUP2 DUP2 SUB PUSH0 DUP4 ADD MSTORE PUSH2 0x876 DUP2 PUSH2 0x83D JUMP JUMPDEST SWAP1 POP SWAP2 SWAP1 POP JUMP JUMPDEST PUSH32 0x4475726174696F6E206D7573742062652067726561746572207468616E203120 PUSH0 DUP3 ADD MSTORE PUSH32 0x6D696E7574650000000000000000000000000000000000000000000000000000 PUSH1 0x20 DUP3 ADD MSTORE POP JUMP JUMPDEST PUSH0 PUSH2 0x8D7 PUSH1 0x26 DUP4 PUSH2 0x7DF JUMP JUMPDEST SWAP2 POP PUSH2 0x8E2 DUP3 PUSH2 0x87D JUMP JUMPDEST PUSH1 0x40 DUP3 ADD SWAP1 POP SWAP2 SWAP1 POP JUMP JUMPDEST PUSH0 PUSH1 0x20 DUP3 ADD SWAP1 POP DUP2 DUP2 SUB PUSH0 DUP4 ADD MSTORE PUSH2 0x904 DUP2 PUSH2 0x8CB JUMP JUMPDEST SWAP1 POP SWAP2 SWAP1 POP JUMP JUMPDEST PUSH32 0x4F6E6C792061646D696E2063616E206372656174652061756374696F6E000000 PUSH0 DUP3 ADD MSTORE POP JUMP JUMPDEST PUSH0 PUSH2 0x93F PUSH1 0x1D DUP4 PUSH2 0x7DF JUMP JUMPDEST SWAP2 POP PUSH2 0x94A DUP3 PUSH2 0x90B JUMP JUMPDEST PUSH1 0x20 DUP3 ADD SWAP1 POP SWAP2 SWAP1 POP JUMP JUMPDEST PUSH0 PUSH1 0x20 DUP3 ADD SWAP1 POP DUP2 DUP2 SUB PUSH0 DUP4 ADD MSTORE PUSH2 0x96C DUP2 PUSH2 0x933 JUMP JUMPDEST SWAP1 POP SWAP2 SWAP1 POP JUMP JUMPDEST PUSH32 0x4E487B7100000000000000000000000000000000000000000000000000000000 PUSH0 MSTORE PUSH1 0x11 PUSH1 0x4 MSTORE PUSH1 0x24 PUSH0 REVERT JUMPDEST PUSH0 PUSH2 0x9AA DUP3 PUSH2 0x63C JUMP JUMPDEST SWAP2 POP PUSH32 0xFFFFFFFFFFFFFFFFFFFFFFFFFFFFFFFFFFFFFFFFFFFFFFFFFFFFFFFFFFFFFFFF DUP3 SUB PUSH2 0x9DC JUMPI PUSH2 0x9DB PUSH2 0x973 JUMP JUMPDEST JUMPDEST PUSH1 0x1 DUP3 ADD SWAP1 POP SWAP2 SWAP1 POP JUMP JUMPDEST PUSH0 PUSH2 0x9F1 DUP3 PUSH2 0x63C JUMP JUMPDEST SWAP2 POP PUSH2 0x9FC DUP4 PUSH2 0x63C JUMP JUMPDEST SWAP3 POP DUP3 DUP3 ADD SWAP1 POP DUP1 DUP3 GT ISZERO PUSH2 0xA14 JUMPI PUSH2 0xA13 PUSH2 0x973 JUMP JUMPDEST JUMPDEST SWAP3 SWAP2 POP POP JUMP JUMPDEST PUSH32 0x41756374696F6E20616C726561647920656E6465640000000000000000000000 PUSH0 DUP3 ADD MSTORE POP JUMP JUMPDEST PUSH0 PUSH2 0xA4E PUSH1 0x15 DUP4 PUSH2 0x7DF JUMP JUMPDEST SWAP2 POP PUSH2 0xA59 DUP3 PUSH2 0xA1A JUMP JUMPDEST PUSH1 0x20 DUP3 ADD SWAP1 POP SWAP2 SWAP1 POP JUMP JUMPDEST PUSH0 PUSH1 0x20 DUP3 ADD SWAP1 POP DUP2 DUP2 SUB PUSH0 DUP4 ADD MSTORE PUSH2 0xA7B DUP2 PUSH2 0xA42 JUMP JUMPDEST SWAP1 POP SWAP2 SWAP1 POP JUMP JUMPDEST PUSH32 0x426964206D75737420626520686967686572207468616E207468652063757272 PUSH0 DUP3 ADD MSTORE PUSH32 0x656E742068696768657374206269640000000000000000000000000000000000 PUSH1 0x20 DUP3 ADD MSTORE POP JUMP JUMPDEST PUSH0 PUSH2 0xADC PUSH1 0x2F DUP4 PUSH2 0x7DF JUMP JUMPDEST SWAP2 POP PUSH2 0xAE7 DUP3 PUSH2 0xA82 JUMP JUMPDEST PUSH1 0x40 DUP3 ADD SWAP1 POP SWAP2 SWAP1 POP JUMP JUMPDEST PUSH0 PUSH1 0x20 DUP3 ADD SWAP1 POP DUP2 DUP2 SUB PUSH0 DUP4 ADD MSTORE PUSH2 0xB09 DUP2 PUSH2 0xAD0 JUMP JUMPDEST SWAP1 POP SWAP2 SWAP1 POP JUMP INVALID LOG2 PUSH5 0x6970667358 0x22 SLT KECCAK256 PUSH8 0x1FCC4F356702FCA PUSH12 0x9739877B2EC0C74A7722340B CALL CREATE 0xA7 0xB1 DUP16 RETURNDATASIZE PUSH32 0x15439B64736F6C634300081A0033000000000000000000000000000000000000 "
				},
				"gasEstimates": {
					"creation": {
						"codeDepositCost": "577200",
						"executionCost": "24876",
						"totalCost": "602076"
					},
					"external": {
						"admin()": "2552",
						"auctions(uint256)": "infinite",
						"createAuction(uint256,uint256)": "infinite",
						"nextAuctionId()": "2491",
						"palceBid(uint256)": "infinite"
					}
				},
				"methodIdentifiers": {
					"admin()": "f851a440",
					"auctions(uint256)": "571a26a0",
					"createAuction(uint256,uint256)": "0121683f",
					"nextAuctionId()": "fc528482",
					"palceBid(uint256)": "b30aeee7"
				}
			},
			"storageLayout": {
				"storage": [
					{
						"astId": 21,
						"contract": "contracts/NftAuction.sol:NftAuction",
						"label": "auctions",
						"offset": 0,
						"slot": "0",
						"type": "t_mapping(t_uint256,t_struct(Auction)16_storage)"
					},
					{
						"astId": 23,
						"contract": "contracts/NftAuction.sol:NftAuction",
						"label": "nextAuctionId",
						"offset": 0,
						"slot": "1",
						"type": "t_uint256"
					},
					{
						"astId": 25,
						"contract": "contracts/NftAuction.sol:NftAuction",
						"label": "admin",
						"offset": 0,
						"slot": "2",
						"type": "t_address"
					}
				],
				"types": {
					"t_address": {
						"encoding": "inplace",
						"label": "address",
						"numberOfBytes": "20"
					},
					"t_bool": {
						"encoding": "inplace",
						"label": "bool",
						"numberOfBytes": "1"
					},
					"t_mapping(t_uint256,t_struct(Auction)16_storage)": {
						"encoding": "mapping",
						"key": "t_uint256",
						"label": "mapping(uint256 => struct NftAuction.Auction)",
						"numberOfBytes": "32",
						"value": "t_struct(Auction)16_storage"
					},
					"t_struct(Auction)16_storage": {
						"encoding": "inplace",
						"label": "struct NftAuction.Auction",
						"members": [
							{
								"astId": 3,
								"contract": "contracts/NftAuction.sol:NftAuction",
								"label": "seller",
								"offset": 0,
								"slot": "0",
								"type": "t_address"
							},
							{
								"astId": 5,
								"contract": "contracts/NftAuction.sol:NftAuction",
								"label": "startPrice",
								"offset": 0,
								"slot": "1",
								"type": "t_uint256"
							},
							{
								"astId": 7,
								"contract": "contracts/NftAuction.sol:NftAuction",
								"label": "duration",
								"offset": 0,
								"slot": "2",
								"type": "t_uint256"
							},
							{
								"astId": 9,
								"contract": "contracts/NftAuction.sol:NftAuction",
								"label": "startTime",
								"offset": 0,
								"slot": "3",
								"type": "t_uint256"
							},
							{
								"astId": 11,
								"contract": "contracts/NftAuction.sol:NftAuction",
								"label": "highestBidder",
								"offset": 0,
								"slot": "4",
								"type": "t_address"
							},
							{
								"astId": 13,
								"contract": "contracts/NftAuction.sol:NftAuction",
								"label": "highestBid",
								"offset": 0,
								"slot": "5",
								"type": "t_uint256"
							},
							{
								"astId": 15,
								"contract": "contracts/NftAuction.sol:NftAuction",
								"label": "ended",
								"offset": 0,
								"slot": "6",
								"type": "t_bool"
							}
						],
						"numberOfBytes": "224"
					},
					"t_uint256": {
						"encoding": "inplace",
						"label": "uint256",
						"numberOfBytes": "32"
					}
				}
			},
			"userdoc": {
				"kind": "user",
				"methods": {},
				"version": 1
			}
		}
	}
}